:020000040800F2
:1000000050040020B1110008391100083B1100080C
:100010003D1100083F1100084111000800000000D8
:100020000000000000000000000000004311000874
:1000300045110008000000004711000849110008A0
:10004000CD110008D1110008D5110008D911000800
:10005000DD110008E1110008E5110008E9110008B0
:10006000ED110008F1110008F5110008F911000860
:10007000FD1100080112000805120008091200080D
:100080000D120008111200081512000800000000EF
:10009000000000000000000000000000191200082D
:1000A0001D1200082112000825120008291200085C
:1000B0002D1200083112000835120008391200080C
:1000C0003D120008411200084512000849120008BC
:1000D0004D120008511200085512000800000000DF
:1000E000591200085D1200086112000800000000AB
:1000F0000000000000000000000000006512000881
:1001000000000000691200086D120008711200085A
:1001100000000000000000000000000000000000DF
:1001200075120008791200087D120008811200087B
:100130008512000800000000000000000000000020
:10014000000000000000000000000000891200080C
:100150008D120008911200089512000899120008EB
:100160009D120008A112000800000000000000001D
:10017000000000000000000000000000000000007F
:1001800000000000A51200080000000000000000B0
:10019000A912000802206870211D206800F0D4F820
:1001A00001206870002032BD38B5040001D1012063
:1001B00032BD00F023F818B900F01CF800F0FBF98C
:1001C000E8E710B500F01EF801E000F01FF800F0BD
:1001D0001EF92068DFF87810884205D1DFF8741026
:1001E0000A6842F400420A60016841F001010160BE
:1001F000002010BD002129702046704704F1380509
:100200006878704704460122206870470446080059
:1002100006D0042909D008290CD00C290FD013E0EE
:100220002068C26842F002020DE02068C26842F015
:10023000040208E02068C26842F0080203E0206877
:10024000C26842F01002C2602068012270470000BC
:10025000000001404400014070B500F063F801D196
:10026000022070BD00F065F832B1042A17D0082AC8
:1002700028D00C2A39D04AE03068294600F0D1F85D
:100280003068816941F0080100F048F821F004016C
:10029000816131688A69286902438A6137E0306880
:1002A000294600F08BF83068816941F4006100F064
:1002B00035F821F4806100F031F82A6941EA022121
:1002C000816124E03068294600F0D0F83068C169C7
:1002D00041F0080100F01EF821F00401C16131680D
:1002E000CA6928690243CA6111E03068294600F0F2
:1002F000E5F83068C16941F4006100F00BF821F4C1
:10030000806100F007F82A6941EA0221C16100F02A
:1003100015F870BDC1613068C1697047816130688E
:1003200081697047064606F138040D462078012899
:1003300070470120207002216170704701206070B9
:100340000021217000207047F0B56D4F03686D4C9F
:100350006D4D6E4EB84218BFB0F1804F04D0B04220
:100360001CBFA842A0420CD14A6823F0700313437B
:10037000B84218BFB0F1804F0ED0B04218BFA842AB
:100380000AD0A0421CBF624A904205D0614CA042F4
:100390001CBF614A904203D1CA6823F440731343DF
:1003A0000360B8428B68C3620A68826202D109693D
:1003B0005A4A116001234361F0BD000070B5026A22
:1003C0004F4E22F010020262B042056A436884690F
:1003D0000A6824F4E64444EA02248A6825F02005E9
:1003E00045EA02150DD1CA684E6925F0800545EA37
:1003F00002158A6923F44063164325F0400543EA59
:1004000086034360846149688163056270BD10B5ED
:10041000036A01248C40A343036202FA01F1036AD8
:100420007EE070B5026A520852000262066A4468B1
:1004300085690B688A6825F073051D4326F002065E
:1004400016432F4B98420BD1CA684B6926F0080619
:1004500024F4407416438A691C4326F004061443AE
:100460004460856149684163066270BD70B5026A87
:1004700022F480720262056A4368C4690A688E6861
:1004800024F0730414431E4A25F40075904245EA93
:1004900006250DD1CA684E6925F4006545EA022596
:1004A0008A6923F44053164325F4806543EA061312
:1004B0004360C4614968C163056270BD70B5026A7A
:1004C0000F4E22F480520262B042046A4268C3694D
:1004D0000D6823F4E64343EA05238D6824F40054B1
:1004E00044EA053404D14D6922F4804242EA85127F
:1004F0004260C36149680164046270BD000000008D
:1005000000000140000C00400008004000040040D2
:1005100000400140004401400048014030000140DB
:100520001943016210BD000080B500200090002238
:100530003548416841F480414160416801F480419F
:10054000009100990092036843F0805303600068B3
:1005500000F0805000900098032000F066F8002220
:1005600000216FF00B0000F06DF8002200216FF009
:100570000A0000F067F8002200216FF0090000F087
:1005800061F8002200216FF0040000F05BF8002207
:1005900000216FF0030000F055F8002200216FF0F9
:1005A000010000F04FF8BDE80840002200214FF0A4
:1005B000FF3000F047B881B00068B0F1804F0BD138
:1005C000002111480091026842F0010202600068B7
:1005D00000F001000090009801B070470068B0F191
:1005E000804F00D0704700B585B0202100910222D5
:1005F000002102910391019201210491694603486F
:1006000000F06CF805B000BD403802400000024028
:100610000901020006D52A4A00F00F00104400F834
:10062000041C7047274B19547047274B19684FF625
:10063000FF020002114000F4E06008432349084330
:100640001860704770B5204B1C68C4F30223012466
:10065000C3F10705052D2EBF0F2504FA05F56D1E04
:100660001E1D072E34BF0023DB1E2940994004FACB
:1006700003F3BDE870405B1E1A401143C8E710B594
:10068000401EB0F1807F01D3012010BD104C60608E
:100690000F214FF0FF30FFF7BBFF0021A1600720C3
:1006A0002060002010BD0428094904D1086840F0EA
:1006B0000400086070470A6822F004020A6070476C
:1006C00018ED00E000E400E00CED00E00000FA05A9
:1006D00010E000E000F000B8704700002DE9F84F8E
:1006E0004FF0000E624A634BDFF88C814FF00F0928
:1006F00006468A460121DAF8004001FA0EF10C4064
:100700008C4240F0AD80DAF80450022D18BF122D53
:100710004FEA8E0012D14FEADE0506EB850C00F0A1
:100720001C05DCF8207009FA05FB27EA0B07DAF84C
:1007300010B00BFA05F53D43CCF820504FEA4E0CB3
:10074000032537689AF804B005FA0CF5ED430BF071
:10075000030B2F400BFA0CFB4BEA07073760DAF864
:100760000470012F18BF022F03D0112F18BF122FB2
:1007700013D1B768DAF80CB02F400BFA0CFB4BEA38
:100780000707B760776827EA0101DAF80470C7F352
:10079000001707FA0EF739437160F1680D40DAF877
:1007A000081001FA0CF12943F160DAF80410C900CD
:1007B00056D50025009500F00C00D8F8001041F443
:1007C0008041C8F8001009FA00F7D8F8005005F485
:1007D0008045009500994FEA9E0153F8215025EA83
:1007E0000707264DAE4208BF002513D0244DAE4268
:1007F00008BF01250ED0234DAE4208BF022509D007
:10080000214DAE4208BF032504D0204DAE420CBF9F
:100810000425072505FA00F0384343F82100E0439A
:100820001168DAF804500140ED0348BF214311601C
:100830005168DAF804500140AD0348BF21435160CC
:100840009168DAF804500140ED0248BF21439160FD
:10085000D1680140DAF80400800248BF2143D1602A
:100860000EF1010EBEF10F0F7FF644AFBDE8F18F20
:10087000003C01400838014044380240000002407A
:100880000004024000080240000C02400010024038
:100890002DE9F843040016D02078AD4EC1074AD5A3
:1008A000B06800F00C00042807D0B06800F00C001D
:1008B00008280AD17068410207D5306881033AD50B
:1008C0006068002837D1012040E16068B0F5803FC2
:1008D00004D1306840F48030306011E0B0F5A02FD2
:1008E000306806D140F480203060316841F48031B6
:1008F00005E020F480303060316821F480213160DF
:10090000606860B100F02CF905463068810312D4AC
:1009100000F026F9401B6528F7D3032016E100F00C
:100920001FF905463068810305D500F019F9401B11
:100930006528F7D3F1E72078864F810718D5B0688E
:1009400010F00C0F07D0B06800F00C00082823D17D
:100950007068410220D43068810702D5E068012820
:10096000B1D13168206921F0F80141EAC00131605C
:100970002178080742D56069774990B301220A605F
:1009800000F0EEF80546706F810737D400F0E8F804
:10099000401B0228F7D9C0E7E068A8B101213960FF
:1009A00000F0DEF805463068810705D400F0D8F87D
:1009B000401B0228F7D9B0E73068216920F0F80021
:1009C00040EAC1003060D3E7386000F0C9F805465E
:1009D00031688807CCD500F0C3F8401B0228F7D94E
:1009E0009BE7086000F0BCF80546706F810705D5ED
:1009F00000F0B6F8401B0228F7D98EE720784107AF
:100A00005FD5306C0025C1000AD400950125316CFA
:100A100041F080513164306C00F0805000900098BB
:100A2000DFF83881D8F80000C10513D4D8F80000E9
:100A300040F48070C8F8000000F092F88146D8F8C1
:100A40000000C10506D400F08BF8A0EB09000228D5
:100A5000F5D962E7A068012805D00528306F06D1D6
:100A600040F004003067306F40F0010005E04008BE
:100A700040003067306F20F00400306741F2893861
:100A8000A06860B100F06CF88146306F810713D424
:100A900000F066F8A0EB09004045F6D33DE700F012
:100AA0005FF88146306F810706D500F059F8A0EB5A
:100AB00009004045F6D330E71DB1306C20F080507E
:100AC0003064A069002840D0B16801F00C01082909
:100AD0003FF4F9AE02282AD10020386600F040F831
:100AE00005463068810105D500F03AF8401B022820
:100AF000F7D912E7E069216A626A0843A16A4908E6
:100B000040EA8210491E40EA0140E16A40EA016081
:100B100070600120386600F023F8044630688101D7
:100B200013D400F01DF8001B0228F7D9F5E60020C9
:100B3000386600F015F804463068810105D500F0EC
:100B40000FF8001B0228F7D9E7E60020BDE8F28382
:100B50000038024000004742800E474200700040CB
:100B600001484068704700BF000000202DE9F041B7
:100B700004000F4654D0414E306800F00F00B842D8
:100B800002D200F072F84BD120683D4D810712D59A
:100B9000400703D5A96841F4E051A9602078010716
:100BA00003D5A86840F46040A860A968A06821F057
:100BB000F0010143A9602178C80729D560680128A0
:100BC00002D129688A0305E0022818BF032803D14F
:100BD00029688A0103D423E029688A0720D5A968F7
:100BE000890840EA8100A860FFF7BAFF8046A8683C
:100BF000616800F00C00B0EB810F09D0FFF7B0FF87
:100C0000A0EB080041F289318842F0D303202AE0AA
:100C1000306800F00F00874204D200F026F801D0BF
:100C2000012020E02078410705D5AA68E06822F479
:100C3000E0520243AA602178080706D5A968206916
:100C400021F4604141EAC001A96000F01FF8AA68E0
:100C50000C490D4BC2F30312895CC8401860002098
:100C600000F044F80020BDE8F0813770316801F0F1
:100C70000F01B9427047044800687047003C0240C9
:100C800000380240941000080C00002030B5144CCD
:100C9000606800F00C00042802D0082802D01DE093
:100CA000104830BD226820680023410202F03F0254
:100CB00004D525680B49C5F3881003E020680A496C
:100CC000C0F38810A1FB000100F030F82168C1F3E7
:100CD0000141491C4900B0FBF1F030BD024830BD74
:100CE0000438024040787D010024F40038B50D4DF1
:100CF0000D4B2A7804464FF47A711868B1FBF2F272
:100D0000B0FBF2F0FFF7BBFC50B9102C08D2002268
:100D100021464FF0FF30FFF795FCAC60002032BD5C
:100D2000012032BD000000200C000020D3BBD9B14F
:100D3000B2F5803F5BD2022A1ED98C46B1FBF2F19C
:100D400002FB11C31B0443EA1043B3FBF2FC02FB9A
:100D50001C3380B240EA0343B3FBF2F002FB1032D3
:100D600040EA0C4000237047022A05D98446B0FBB4
:100D7000F2F002FB10C270474AB105D100F0010247
:100D800049085FEA3000704700220023704700F0F6
:100D900051B80B000200002100207047F7D3002259
:100DA00000237047904271EB030CF2D370B5B1FA97
:100DB00081F4B3FA83F52C1BA340C4F1200532FA69
:100DC00005F63343A2405FF00046E64002E05B08D0
:100DD0005FEA3202841A71EB030524BF20462946DC
:100DE0007641F4D302000B003000002170BD70B5D5
:100DF000B1FA81F4B2FA82F5C4F120046419B4F1B5
:100E00002006DAD3B2405FF00044F440002502E04F
:100E100052085FEA3303C61A71EB020E24BF304654
:100E2000714664416D41F3D302000B00200029009C
:100E300070BD00007047000030B589B000F0AEF81A
:100E400000F047F8002000904F225048504C0168B5
:100E500041F0010101604FF08041006800F00100A5
:100E60000090009821600020A06040F2CF712061C6
:100E70006260E1602046FFF797F900B1FEE70021CC
:100E8000009101912046694600F0A2F800B1FEE70A
:100E900060210291002203920492069202A9204648
:100EA000FFF7DAF900B1FEE72046FFF797FB0025D0
:100EB0000024642000F0B2F82CB1B4F5FA6F03D12D
:100EC0006FF0630500E064252C19A0B200F049F82A
:100ED000EFE780B592B00020009001232D48016813
:100EE00041F0805101600021006800F080500090C6
:100EF000009829480091026822F4404242F40042DE
:100F000002600222006800F44040009006A80099A8
:100F100006921021002209930A910C92FFF7B8FC67
:100F200000B1FEE70F20019000210291039104918E
:100F3000059101A8FFF71AFE00B1FEE7FFF79BFE3F
:100F40004FF47A71B0FBF1F0FFF799FB0420FFF743
:100F5000AAFB002200214FF0FF30FFF773FB13B014
:100F600000BD18B587B06022009201900022029265
:100F700004926946064C2046FFF76EF900B1FEE781
:100F800000212046FFF71DF908B010BD303802409F
:100F900010000020403802400070004080B50B482F
:100FA000016841F400710160026842F480620260ED
:100FB000016841F4807101600320FFF736FB0020D7
:100FC000FFF794FEFFF7B0FA002002BD003C02409C
:100FD00030B500F138031A78012A01D1022030BD62
:100FE00001221A7002245C700268546824F07004B4
:100FF0005460046865680A6815436560026894680F
:1010000024F0800494600268946848680443946003
:10101000012159700020187030BD000038B5044619
:10102000FFF79EFD14F1010F054602D00448017838
:101030006418FFF795FD401BA042FAD331BD00BFF5
:10104000000000200E48016841F470010160002298
:101050000C49086840F0010008608A600B680A4883
:101060000A4A03400B604A6000200B68084A23F4D8
:1010700080230B60C8604FF0006111607047000072
:1010800088ED00E000380240FFFFF6FE103000243B
:1010900008ED00E000000000000000000102030471
:1010A0000607080930B5016884684218416802EBF8
:1010B0005103C90703D54C4401E0491C05D19A42AC
:1010C0000AD012F9011B12F8015B002904F8015B38
:1010D000F3D4491EF7D5F2E70C3030BD10B50749FF
:1010E00079441831064C7C44163404E00A68081D23
:1010F000114488470146A142F8D110BD2C000000E0
:10110000380000004EF68851CEF20001086840F425
:1011100070000860BFF34F8FBFF36F8F4FF0007008
:10112000E1EE100A704700007DFFFFFF8001000024
:101130001A000000000000207047FEE7FEE7FEE70F
:10114000FEE770477047704780B500F005F8BDE8CE
:101150000140FFF7BFBA00000248416802788A18D0
:10116000426070470000002000F00DF8002801D018
:10117000FFF7B4FFAFF300800020AFF30080FFF76C
:101180005BFE00F002F80120704700F001B800009B
:101190000746384600F002F8FBE7000080B5AFF3E1
:1011A0000080024A11001820ABBEFBE726000200B7
:1011B000014880470148004745100008C111000858
:1011C000AFF30080FFF79EFFFFF7CEFFFFF7FEBFF4
:1011D000FFF7FEBFFFF7FEBFFFF7FEBFFFF7FEBF43
:1011E000FFF7FEBFFFF7FEBFFFF7FEBFFFF7FEBF33
:1011F000FFF7FEBFFFF7FEBFFFF7FEBFFFF7FEBF23
:10120000FFF7FEBFFFF7FEBFFFF7FEBFFFF7FEBF12
:10121000FFF7FEBFFFF7FEBFFFF7FEBFFFF7FEBF02
:10122000FFF7FEBFFFF7FEBFFFF7FEBFFFF7FEBFF2
:10123000FFF7FEBFFFF7FEBFFFF7FEBFFFF7FEBFE2
:10124000FFF7FEBFFFF7FEBFFFF7FEBFFFF7FEBFD2
:10125000FFF7FEBFFFF7FEBFFFF7FEBFFFF7FEBFC2
:10126000FFF7FEBFFFF7FEBFFFF7FEBFFFF7FEBFB2
:10127000FFF7FEBFFFF7FEBFFFF7FEBFFFF7FEBFA2
:10128000FFF7FEBFFFF7FEBFFFF7FEBFFFF7FEBF92
:10129000FFF7FEBFFFF7FEBFFFF7FEBFFFF7FEBF82
:1012A000FFF7FEBFFFF7FEBFFFF7FEBF0001F9002B
:0912B0000010FC000124F4C3004D
:04000005080011C11D
:00000001FF
